{
  "address": "0xe7f1725E7734CE288F8367e1Bb143E90bb3F0512",
  "abi": [
    {
      "inputs": [
        {
          "internalType": "address",
          "name": "_stableCoin",
          "type": "address"
        },
        {
          "internalType": "uint256",
          "name": "_platformFee",
          "type": "uint256"
        }
      ],
      "stateMutability": "nonpayable",
      "type": "constructor"
    },
    {
      "anonymous": false,
      "inputs": [
        {
          "indexed": true,
          "internalType": "uint256",
          "name": "projectId",
          "type": "uint256"
        },
        {
          "indexed": false,
          "internalType": "uint256",
          "name": "amount",
          "type": "uint256"
        }
      ],
      "name": "FundsWithdrawn",
      "type": "event"
    },
    {
      "anonymous": false,
      "inputs": [
        {
          "indexed": true,
          "internalType": "uint256",
          "name": "projectId",
          "type": "uint256"
        },
        {
          "indexed": true,
          "internalType": "address",
          "name": "investor",
          "type": "address"
        },
        {
          "indexed": false,
          "internalType": "uint256",
          "name": "amount",
          "type": "uint256"
        }
      ],
      "name": "InvestmentMade",
      "type": "event"
    },
    {
      "anonymous": false,
      "inputs": [
        {
          "indexed": true,
          "internalType": "address",
          "name": "previousOwner",
          "type": "address"
        },
        {
          "indexed": true,
          "internalType": "address",
          "name": "newOwner",
          "type": "address"
        }
      ],
      "name": "OwnershipTransferred",
      "type": "event"
    },
    {
      "anonymous": false,
      "inputs": [
        {
          "indexed": true,
          "internalType": "uint256",
          "name": "projectId",
          "type": "uint256"
        }
      ],
      "name": "ProjectCancelled",
      "type": "event"
    },
    {
      "anonymous": false,
      "inputs": [
        {
          "indexed": true,
          "internalType": "uint256",
          "name": "projectId",
          "type": "uint256"
        }
      ],
      "name": "ProjectCompleted",
      "type": "event"
    },
    {
      "anonymous": false,
      "inputs": [
        {
          "indexed": true,
          "internalType": "uint256",
          "name": "projectId",
          "type": "uint256"
        },
        {
          "indexed": false,
          "internalType": "string",
          "name": "name",
          "type": "string"
        },
        {
          "indexed": true,
          "internalType": "address",
          "name": "projectOwner",
          "type": "address"
        },
        {
          "indexed": false,
          "internalType": "uint256",
          "name": "fundingGoal",
          "type": "uint256"
        }
      ],
      "name": "ProjectCreated",
      "type": "event"
    },
    {
      "anonymous": false,
      "inputs": [
        {
          "indexed": true,
          "internalType": "uint256",
          "name": "projectId",
          "type": "uint256"
        },
        {
          "indexed": false,
          "internalType": "uint256",
          "name": "totalAmount",
          "type": "uint256"
        }
      ],
      "name": "ProjectFunded",
      "type": "event"
    },
    {
      "anonymous": false,
      "inputs": [
        {
          "indexed": true,
          "internalType": "uint256",
          "name": "projectId",
          "type": "uint256"
        },
        {
          "indexed": false,
          "internalType": "uint256",
          "name": "totalAmount",
          "type": "uint256"
        }
      ],
      "name": "ReturnsDistributed",
      "type": "event"
    },
    {
      "inputs": [
        {
          "internalType": "uint256",
          "name": "_projectId",
          "type": "uint256"
        }
      ],
      "name": "cancelProject",
      "outputs": [],
      "stateMutability": "nonpayable",
      "type": "function"
    },
    {
      "inputs": [
        {
          "internalType": "string",
          "name": "_name",
          "type": "string"
        },
        {
          "internalType": "string",
          "name": "_description",
          "type": "string"
        },
        {
          "internalType": "string",
          "name": "_location",
          "type": "string"
        },
        {
          "internalType": "uint256",
          "name": "_fundingGoal",
          "type": "uint256"
        },
        {
          "internalType": "uint256",
          "name": "_minInvestment",
          "type": "uint256"
        },
        {
          "internalType": "uint256",
          "name": "_expectedReturn",
          "type": "uint256"
        },
        {
          "internalType": "uint256",
          "name": "_deadline",
          "type": "uint256"
        },
        {
          "internalType": "uint256",
          "name": "_duration",
          "type": "uint256"
        }
      ],
      "name": "createProject",
      "outputs": [
        {
          "internalType": "uint256",
          "name": "",
          "type": "uint256"
        }
      ],
      "stateMutability": "nonpayable",
      "type": "function"
    },
    {
      "inputs": [
        {
          "internalType": "uint256",
          "name": "_projectId",
          "type": "uint256"
        },
        {
          "internalType": "uint256",
          "name": "_totalReturns",
          "type": "uint256"
        }
      ],
      "name": "distributeReturns",
      "outputs": [],
      "stateMutability": "nonpayable",
      "type": "function"
    },
    {
      "inputs": [
        {
          "internalType": "uint256",
          "name": "_projectId",
          "type": "uint256"
        },
        {
          "internalType": "address",
          "name": "_investor",
          "type": "address"
        }
      ],
      "name": "getInvestorAmount",
      "outputs": [
        {
          "internalType": "uint256",
          "name": "",
          "type": "uint256"
        }
      ],
      "stateMutability": "view",
      "type": "function"
    },
    {
      "inputs": [
        {
          "internalType": "uint256",
          "name": "_projectId",
          "type": "uint256"
        }
      ],
      "name": "getProject",
      "outputs": [
        {
          "components": [
            {
              "internalType": "uint256",
              "name": "id",
              "type": "uint256"
            },
            {
              "internalType": "string",
              "name": "name",
              "type": "string"
            },
            {
              "internalType": "string",
              "name": "description",
              "type": "string"
            },
            {
              "internalType": "string",
              "name": "location",
              "type": "string"
            },
            {
              "internalType": "address",
              "name": "projectOwner",
              "type": "address"
            },
            {
              "internalType": "uint256",
              "name": "fundingGoal",
              "type": "uint256"
            },
            {
              "internalType": "uint256",
              "name": "totalFunded",
              "type": "uint256"
            },
            {
              "internalType": "uint256",
              "name": "minInvestment",
              "type": "uint256"
            },
            {
              "internalType": "uint256",
              "name": "expectedReturn",
              "type": "uint256"
            },
            {
              "internalType": "uint256",
              "name": "deadline",
              "type": "uint256"
            },
            {
              "internalType": "uint256",
              "name": "duration",
              "type": "uint256"
            },
            {
              "internalType": "enum AgriProject.ProjectStatus",
              "name": "status",
              "type": "uint8"
            },
            {
              "internalType": "bool",
              "name": "fundsWithdrawn",
              "type": "bool"
            }
          ],
          "internalType": "struct AgriProject.Project",
          "name": "",
          "type": "tuple"
        }
      ],
      "stateMutability": "view",
      "type": "function"
    },
    {
      "inputs": [
        {
          "internalType": "uint256",
          "name": "_projectId",
          "type": "uint256"
        }
      ],
      "name": "getProjectInvestments",
      "outputs": [
        {
          "components": [
            {
              "internalType": "address",
              "name": "investor",
              "type": "address"
            },
            {
              "internalType": "uint256",
              "name": "amount",
              "type": "uint256"
            },
            {
              "internalType": "uint256",
              "name": "timestamp",
              "type": "uint256"
            },
            {
              "internalType": "bool",
              "name": "withdrawn",
              "type": "bool"
            }
          ],
          "internalType": "struct AgriProject.Investment[]",
          "name": "",
          "type": "tuple[]"
        }
      ],
      "stateMutability": "view",
      "type": "function"
    },
    {
      "inputs": [
        {
          "internalType": "uint256",
          "name": "_projectId",
          "type": "uint256"
        },
        {
          "internalType": "uint256",
          "name": "_amount",
          "type": "uint256"
        }
      ],
      "name": "invest",
      "outputs": [],
      "stateMutability": "nonpayable",
      "type": "function"
    },
    {
      "inputs": [
        {
          "internalType": "uint256",
          "name": "",
          "type": "uint256"
        },
        {
          "internalType": "address",
          "name": "",
          "type": "address"
        }
      ],
      "name": "investorAmounts",
      "outputs": [
        {
          "internalType": "uint256",
          "name": "",
          "type": "uint256"
        }
      ],
      "stateMutability": "view",
      "type": "function"
    },
    {
      "inputs": [],
      "name": "owner",
      "outputs": [
        {
          "internalType": "address",
          "name": "",
          "type": "address"
        }
      ],
      "stateMutability": "view",
      "type": "function"
    },
    {
      "inputs": [],
      "name": "platformFee",
      "outputs": [
        {
          "internalType": "uint256",
          "name": "",
          "type": "uint256"
        }
      ],
      "stateMutability": "view",
      "type": "function"
    },
    {
      "inputs": [],
      "name": "projectCounter",
      "outputs": [
        {
          "internalType": "uint256",
          "name": "",
          "type": "uint256"
        }
      ],
      "stateMutability": "view",
      "type": "function"
    },
    {
      "inputs": [
        {
          "internalType": "uint256",
          "name": "",
          "type": "uint256"
        },
        {
          "internalType": "uint256",
          "name": "",
          "type": "uint256"
        }
      ],
      "name": "projectInvestments",
      "outputs": [
        {
          "internalType": "address",
          "name": "investor",
          "type": "address"
        },
        {
          "internalType": "uint256",
          "name": "amount",
          "type": "uint256"
        },
        {
          "internalType": "uint256",
          "name": "timestamp",
          "type": "uint256"
        },
        {
          "internalType": "bool",
          "name": "withdrawn",
          "type": "bool"
        }
      ],
      "stateMutability": "view",
      "type": "function"
    },
    {
      "inputs": [
        {
          "internalType": "uint256",
          "name": "",
          "type": "uint256"
        }
      ],
      "name": "projects",
      "outputs": [
        {
          "internalType": "uint256",
          "name": "id",
          "type": "uint256"
        },
        {
          "internalType": "string",
          "name": "name",
          "type": "string"
        },
        {
          "internalType": "string",
          "name": "description",
          "type": "string"
        },
        {
          "internalType": "string",
          "name": "location",
          "type": "string"
        },
        {
          "internalType": "address",
          "name": "projectOwner",
          "type": "address"
        },
        {
          "internalType": "uint256",
          "name": "fundingGoal",
          "type": "uint256"
        },
        {
          "internalType": "uint256",
          "name": "totalFunded",
          "type": "uint256"
        },
        {
          "internalType": "uint256",
          "name": "minInvestment",
          "type": "uint256"
        },
        {
          "internalType": "uint256",
          "name": "expectedReturn",
          "type": "uint256"
        },
        {
          "internalType": "uint256",
          "name": "deadline",
          "type": "uint256"
        },
        {
          "internalType": "uint256",
          "name": "duration",
          "type": "uint256"
        },
        {
          "internalType": "enum AgriProject.ProjectStatus",
          "name": "status",
          "type": "uint8"
        },
        {
          "internalType": "bool",
          "name": "fundsWithdrawn",
          "type": "bool"
        }
      ],
      "stateMutability": "view",
      "type": "function"
    },
    {
      "inputs": [],
      "name": "renounceOwnership",
      "outputs": [],
      "stateMutability": "nonpayable",
      "type": "function"
    },
    {
      "inputs": [],
      "name": "stableCoin",
      "outputs": [
        {
          "internalType": "contract IERC20",
          "name": "",
          "type": "address"
        }
      ],
      "stateMutability": "view",
      "type": "function"
    },
    {
      "inputs": [
        {
          "internalType": "address",
          "name": "newOwner",
          "type": "address"
        }
      ],
      "name": "transferOwnership",
      "outputs": [],
      "stateMutability": "nonpayable",
      "type": "function"
    },
    {
      "inputs": [
        {
          "internalType": "uint256",
          "name": "_newFee",
          "type": "uint256"
        }
      ],
      "name": "updatePlatformFee",
      "outputs": [],
      "stateMutability": "nonpayable",
      "type": "function"
    },
    {
      "inputs": [
        {
          "internalType": "uint256",
          "name": "_projectId",
          "type": "uint256"
        }
      ],
      "name": "withdrawFunds",
      "outputs": [],
      "stateMutability": "nonpayable",
      "type": "function"
    }
  ],
  "transactionHash": "0x7c0a51afb19182b5b33f2af71892c6283b1fde9118094f1ff0536cd16a616740",
  "args": [
    "0x5FbDB2315678afecb367f032d93F642f64180aa3",
    250
  ],
  "numDeployments": 1,
  "solcInputHash": "b985ebc3310a9568a9ead3a26a4e9f1c",
  "bytecode": "0x60806040523480156200001157600080fd5b506040516200247e3803806200247e83398101604081905262000034916200015c565b6200003f336200010c565b600180556001600160a01b0382166200009f5760405162461bcd60e51b815260206004820152601a60248201527f496e76616c696420737461626c65636f696e206164647265737300000000000060448201526064015b60405180910390fd5b6103e8811115620000e25760405162461bcd60e51b815260206004820152600c60248201526b08ccaca40e8dede40d0d2ced60a31b604482015260640162000096565b600680546001600160a01b0319166001600160a01b03939093169290921790915560075562000198565b600080546001600160a01b038381166001600160a01b0319831681178455604051919092169283917f8be0079c531659141344cd1fd0a4f28419497f9722a3daafe3b4186f6b6457e09190a35050565b600080604083850312156200017057600080fd5b82516001600160a01b03811681146200018857600080fd5b6020939093015192949293505050565b6122d680620001a86000396000f3fe608060405234801561001057600080fd5b50600436106101165760003560e01c8063992642e5116100a2578063d87aa64311610071578063d87aa64314610292578063e8df8d80146102a5578063f0f3f2c8146102b8578063f2fde38b146102d8578063f8a518ed146102eb57600080fd5b8063992642e514610221578063a284135b14610234578063aa0b598814610254578063d6dfd2001461026757600080fd5b806326232a2e116100e957806326232a2e146101995780633a1339cf146101a2578063472626ee146101e1578063715018a6146101f45780638da5cb5b146101fc57600080fd5b8063107046bd1461011b578063155dd5ee146101505780631cdcf813146101655780632494114714610186575b600080fd5b61012e610129366004611bc4565b6102f4565b6040516101479d9c9b9a99989796959493929190611c5b565b60405180910390f35b61016361015e366004611bc4565b6104fe565b005b610178610173366004611d19565b610875565b604051908152602001610147565b610163610194366004611bc4565b61089f565b61017860075481565b6101b56101b0366004611d45565b610b70565b604080516001600160a01b03909516855260208501939093529183015215156060820152608001610147565b6101636101ef366004611d45565b610bc3565b610163610fe6565b6000546001600160a01b03165b6040516001600160a01b039091168152602001610147565b600654610209906001600160a01b031681565b610247610242366004611bc4565b610ffa565b6040516101479190611d67565b610163610262366004611bc4565b61109c565b610178610275366004611d19565b600560209081526000928352604080842090915290825290205481565b6101636102a0366004611d45565b6110ea565b6101786102b3366004611e79565b611457565b6102cb6102c6366004611bc4565b611744565b6040516101479190611f2f565b6101636102e6366004612024565b6119c9565b61017860025481565b6003602052600090815260409020805460018201805491929161031690612046565b80601f016020809104026020016040519081016040528092919081815260200182805461034290612046565b801561038f5780601f106103645761010080835404028352916020019161038f565b820191906000526020600020905b81548152906001019060200180831161037257829003601f168201915b5050505050908060020180546103a490612046565b80601f01602080910402602001604051908101604052809291908181526020018280546103d090612046565b801561041d5780601f106103f25761010080835404028352916020019161041d565b820191906000526020600020905b81548152906001019060200180831161040057829003601f168201915b50505050509080600301805461043290612046565b80601f016020809104026020016040519081016040528092919081815260200182805461045e90612046565b80156104ab5780601f10610480576101008083540402835291602001916104ab565b820191906000526020600020905b81548152906001019060200180831161048e57829003601f168201915b505050600484015460058501546006860154600787015460088801546009890154600a8a0154600b909a015498996001600160a01b03909616989497509295509093909260ff808216916101009004168d565b610506611a3f565b600081815260036020526040902060048101546001600160a01b031633146105695760405162461bcd60e51b81526020600482015260116024820152702737ba10383937b532b1ba1037bbb732b960791b60448201526064015b60405180910390fd5b6001600b82015460ff16600381111561058457610584611c23565b146105c65760405162461bcd60e51b815260206004820152601260248201527150726f6a656374206e6f742061637469766560701b6044820152606401610560565b600b810154610100900460ff16156106205760405162461bcd60e51b815260206004820152601760248201527f46756e647320616c72656164792077697468647261776e0000000000000000006044820152606401610560565b80600501548160060154101561066b5760405162461bcd60e51b815260206004820152601060248201526f11dbd85b081b9bdd081c995858da195960821b6044820152606401610560565b600b8101805461ff0019166101001790556007546006820154600091612710916106959190612096565b61069f91906120ad565b905060008183600601546106b391906120cf565b90508115610791576006546001600160a01b031663a9059cbb6106de6000546001600160a01b031690565b6040516001600160e01b031960e084901b1681526001600160a01b039091166004820152602481018590526044016020604051808303816000875af115801561072b573d6000803e3d6000fd5b505050506040513d601f19601f8201168201806040525081019061074f91906120e2565b6107915760405162461bcd60e51b8152602060048201526013602482015272119959481d1c985b9cd9995c8819985a5b1959606a1b6044820152606401610560565b60065460048481015460405163a9059cbb60e01b81526001600160a01b0391821692810192909252602482018490529091169063a9059cbb906044016020604051808303816000875af11580156107ec573d6000803e3d6000fd5b505050506040513d601f19601f8201168201806040525081019061081091906120e2565b61082c5760405162461bcd60e51b815260040161056090612104565b837fd66662c0ded9e58fd31d5e44944bcfd07ffc15e6927ecc1382e7941cb7bd24c48260405161085e91815260200190565b60405180910390a250505061087260018055565b50565b60008281526005602090815260408083206001600160a01b03851684529091529020545b92915050565b6108a7611a3f565b600081815260036020526040902060048101546001600160a01b03163314806108da57506000546001600160a01b031633145b6109175760405162461bcd60e51b815260206004820152600e60248201526d139bdd08185d5d1a1bdc9a5e995960921b6044820152606401610560565b6000600b82015460ff16600381111561093257610932611c23565b1461097f5760405162461bcd60e51b815260206004820152601c60248201527f43616e6e6f742063616e63656c206163746976652070726f6a656374000000006044820152606401610560565b600b8101805460ff191660031790556000828152600460205260408120905b8154811015610b39578181815481106109b9576109b961212d565b600091825260209091206003600490920201015460ff16610b275760065482546001600160a01b039091169063a9059cbb908490849081106109fd576109fd61212d565b600091825260209091206004909102015484546001600160a01b0390911690859085908110610a2e57610a2e61212d565b9060005260206000209060040201600101546040518363ffffffff1660e01b8152600401610a719291906001600160a01b03929092168252602082015260400190565b6020604051808303816000875af1158015610a90573d6000803e3d6000fd5b505050506040513d601f19601f82011682018060405250810190610ab491906120e2565b610af05760405162461bcd60e51b815260206004820152600d60248201526c1499599d5b990819985a5b1959609a1b6044820152606401610560565b6001828281548110610b0457610b0461212d565b60009182526020909120600490910201600301805460ff19169115159190911790555b80610b3181612143565b91505061099e565b5060405183907fe3805ed669490875ae87c5c8b1ad6ecca0e5e67305a833926d0d4317c4822fc090600090a2505061087260018055565b60046020528160005260406000208181548110610b8c57600080fd5b600091825260209091206004909102018054600182015460028301546003909301546001600160a01b039092169450925060ff1684565b610bcb611a3f565b600082815260036020526040902060048101546001600160a01b03163314610c295760405162461bcd60e51b81526020600482015260116024820152702737ba10383937b532b1ba1037bbb732b960791b6044820152606401610560565b6001600b82015460ff166003811115610c4457610c44611c23565b14610c865760405162461bcd60e51b815260206004820152601260248201527150726f6a656374206e6f742061637469766560701b6044820152606401610560565b60008211610cce5760405162461bcd60e51b8152602060048201526015602482015274125b9d985b1a59081c995d1d5c9b88185b5bdd5b9d605a1b6044820152606401610560565b6006546040516323b872dd60e01b8152336004820152306024820152604481018490526001600160a01b03909116906323b872dd906064016020604051808303816000875af1158015610d25573d6000803e3d6000fd5b505050506040513d601f19601f82011682018060405250810190610d4991906120e2565b610d655760405162461bcd60e51b815260040161056090612104565b600083815260046020526040812090805b8254811015610f6657828181548110610d9157610d9161212d565b600091825260209091206003600490920201015460ff16610f545760008460060154848381548110610dc557610dc561212d565b90600052602060002090600402016001015487610de29190612096565b610dec91906120ad565b9050600081858481548110610e0357610e0361212d565b906000526020600020906004020160010154610e1f919061215c565b60065486549192506001600160a01b03169063a9059cbb90879086908110610e4957610e4961212d565b600091825260209091206004918202015460405160e084901b6001600160e01b03191681526001600160a01b0390911691810191909152602481018490526044016020604051808303816000875af1158015610ea9573d6000803e3d6000fd5b505050506040513d601f19601f82011682018060405250810190610ecd91906120e2565b610f0f5760405162461bcd60e51b8152602060048201526013602482015272111a5cdd1c9a589d5d1a5bdb8819985a5b1959606a1b6044820152606401610560565b6001858481548110610f2357610f2361212d565b60009182526020909120600490910201600301805460ff1916911515919091179055610f4f818561215c565b935050505b80610f5e81612143565b915050610d76565b50600b8301805460ff1916600217905560405181815285907f49a387793f6b8d5ef6c2c98151547bb43e9f228706dd1ff3f587f3573d749d729060200160405180910390a260405185907f60d8df137e489b6216738e436244ca4700bd6d0c8371d3c8d9c80b54538111b990600090a2505050610fe260018055565b5050565b610fee611a98565b610ff86000611af2565b565b606060046000838152602001908152602001600020805480602002602001604051908101604052809291908181526020016000905b82821015611091576000848152602090819020604080516080810182526004860290920180546001600160a01b03168352600180820154848601526002820154928401929092526003015460ff1615156060830152908352909201910161102f565b505050509050919050565b6110a4611a98565b6103e88111156110e55760405162461bcd60e51b815260206004820152600c60248201526b08ccaca40e8dede40d0d2ced60a31b6044820152606401610560565b600755565b6110f2611a3f565b600082815260036020526040812090600b82015460ff16600381111561111a5761111a611c23565b146111675760405162461bcd60e51b815260206004820152601f60248201527f50726f6a656374206e6f74206f70656e20666f7220696e766573746d656e74006044820152606401610560565b806009015442106111ac5760405162461bcd60e51b815260206004820152600f60248201526e111958591b1a5b99481c185cdcd959608a1b6044820152606401610560565b80600701548210156112005760405162461bcd60e51b815260206004820152601860248201527f42656c6f77206d696e696d756d20696e766573746d656e7400000000000000006044820152606401610560565b8060050154828260060154611215919061215c565b111561125a5760405162461bcd60e51b8152602060048201526014602482015273115e18d959591cc8199d5b991a5b99c819dbd85b60621b6044820152606401610560565b6006546040516323b872dd60e01b8152336004820152306024820152604481018490526001600160a01b03909116906323b872dd906064016020604051808303816000875af11580156112b1573d6000803e3d6000fd5b505050506040513d601f19601f820116820180604052508101906112d591906120e2565b6112f15760405162461bcd60e51b815260040161056090612104565b60008381526004602081815260408084208151608081018352338082528185018981524283860190815260608401898152855460018082018855968b52888b209551990290940180546001600160a01b0319166001600160a01b0390991698909817885590519387019390935591516002860155516003909401805460ff191694151594909417909355868452600582528084209284529190528120805484929061139d90849061215c565b92505081905550818160060160008282546113b8919061215c565b9091555050604051828152339084907f89728d542d77fad9fe42c7d1f032c2b85f64cf938d754183b0e95359fbfac8a19060200160405180910390a3806005015481600601541061144d57600b8101805460ff19166001179055600681015460405190815283907f26130d0cd3f6aa101d05e4a4f2ff016fd5b934363d17bdd03ff5dc03ec5934a99060200160405180910390a25b50610fe260018055565b600080861161149f5760405162461bcd60e51b8152602060048201526014602482015273125b9d985b1a5908199d5b991a5b99c819dbd85b60621b6044820152606401610560565b600085116114e85760405162461bcd60e51b8152602060048201526016602482015275125b9d985b1a59081b5a5b881a5b9d995cdd1b595b9d60521b6044820152606401610560565b42831161152a5760405162461bcd60e51b815260206004820152601060248201526f496e76616c696420646561646c696e6560801b6044820152606401610560565b6000821161156d5760405162461bcd60e51b815260206004820152601060248201526f24b73b30b634b210323ab930ba34b7b760811b6044820152606401610560565b600280546000918261157e83612143565b919050559050604051806101a001604052808281526020018b81526020018a8152602001898152602001336001600160a01b0316815260200188815260200160008152602001878152602001868152602001858152602001848152602001600060038111156115ef576115ef611c23565b81526000602091820181905283815260038252604090208251815590820151600182019061161d90826121be565b506040820151600282019061163290826121be565b506060820151600382019061164790826121be565b5060808201516004820180546001600160a01b0319166001600160a01b0390921691909117905560a0820151600582015560c0820151600682015560e0820151600782015561010082015160088201556101208201516009820155610140820151600a820155610160820151600b8201805460ff191660018360038111156116d1576116d1611c23565b02179055506101809190910151600b90910180549115156101000261ff0019909216919091179055604051339082907fa026ee65bff24e0219543a4cec2746ef952b145e2658ac5db36953d7044712a99061172f908e908c9061227e565b60405180910390a39998505050505050505050565b61174c611b42565b60036000838152602001908152602001600020604051806101a00160405290816000820154815260200160018201805461178590612046565b80601f01602080910402602001604051908101604052809291908181526020018280546117b190612046565b80156117fe5780601f106117d3576101008083540402835291602001916117fe565b820191906000526020600020905b8154815290600101906020018083116117e157829003601f168201915b5050505050815260200160028201805461181790612046565b80601f016020809104026020016040519081016040528092919081815260200182805461184390612046565b80156118905780601f1061186557610100808354040283529160200191611890565b820191906000526020600020905b81548152906001019060200180831161187357829003601f168201915b505050505081526020016003820180546118a990612046565b80601f01602080910402602001604051908101604052809291908181526020018280546118d590612046565b80156119225780601f106118f757610100808354040283529160200191611922565b820191906000526020600020905b81548152906001019060200180831161190557829003601f168201915b505050918352505060048201546001600160a01b03166020820152600582015460408201526006820154606082015260078201546080820152600882015460a0820152600982015460c0820152600a82015460e0820152600b8201546101009091019060ff16600381111561199957611999611c23565b60038111156119aa576119aa611c23565b8152600b9190910154610100900460ff16151560209091015292915050565b6119d1611a98565b6001600160a01b038116611a365760405162461bcd60e51b815260206004820152602660248201527f4f776e61626c653a206e6577206f776e657220697320746865207a65726f206160448201526564647265737360d01b6064820152608401610560565b61087281611af2565b600260015403611a915760405162461bcd60e51b815260206004820152601f60248201527f5265656e7472616e637947756172643a207265656e7472616e742063616c6c006044820152606401610560565b6002600155565b6000546001600160a01b03163314610ff85760405162461bcd60e51b815260206004820181905260248201527f4f776e61626c653a2063616c6c6572206973206e6f7420746865206f776e65726044820152606401610560565b600080546001600160a01b038381166001600160a01b0319831681178455604051919092169283917f8be0079c531659141344cd1fd0a4f28419497f9722a3daafe3b4186f6b6457e09190a35050565b604051806101a001604052806000815260200160608152602001606081526020016060815260200160006001600160a01b0316815260200160008152602001600081526020016000815260200160008152602001600081526020016000815260200160006003811115611bb757611bb7611c23565b8152600060209091015290565b600060208284031215611bd657600080fd5b5035919050565b6000815180845260005b81811015611c0357602081850181015186830182015201611be7565b506000602082860101526020601f19601f83011685010191505092915050565b634e487b7160e01b600052602160045260246000fd5b60048110611c5757634e487b7160e01b600052602160045260246000fd5b9052565b8d81526101a060208201526000611c766101a083018f611bdd565b8281036040840152611c88818f611bdd565b90508281036060840152611c9c818e611bdd565b91505060018060a01b038b1660808301528960a08301528860c08301528760e0830152866101008301528561012083015284610140830152611ce2610160830185611c39565b8215156101808301529e9d5050505050505050505050505050565b80356001600160a01b0381168114611d1457600080fd5b919050565b60008060408385031215611d2c57600080fd5b82359150611d3c60208401611cfd565b90509250929050565b60008060408385031215611d5857600080fd5b50508035926020909101359150565b602080825282518282018190526000919060409081850190868401855b82811015611dc957815180516001600160a01b031685528681015187860152858101518686015260609081015115159085015260809093019290850190600101611d84565b5091979650505050505050565b634e487b7160e01b600052604160045260246000fd5b600082601f830112611dfd57600080fd5b813567ffffffffffffffff80821115611e1857611e18611dd6565b604051601f8301601f19908116603f01168101908282118183101715611e4057611e40611dd6565b81604052838152866020858801011115611e5957600080fd5b836020870160208301376000602085830101528094505050505092915050565b600080600080600080600080610100898b031215611e9657600080fd5b883567ffffffffffffffff80821115611eae57600080fd5b611eba8c838d01611dec565b995060208b0135915080821115611ed057600080fd5b611edc8c838d01611dec565b985060408b0135915080821115611ef257600080fd5b50611eff8b828c01611dec565b989b979a5097986060810135985060808101359760a0820135975060c0820135965060e090910135945092505050565b6020815281516020820152600060208301516101a0806040850152611f586101c0850183611bdd565b91506040850151601f1980868503016060870152611f768483611bdd565b9350606087015191508086850301608087015250611f948382611bdd565b9250506080850151611fb160a08601826001600160a01b03169052565b5060a085015160c08581019190915285015160e0808601919091528501516101008086019190915285015161012080860191909152850151610140808601919091528501516101608086019190915285015161018061201281870183611c39565b90950151151593019290925250919050565b60006020828403121561203657600080fd5b61203f82611cfd565b9392505050565b600181811c9082168061205a57607f821691505b60208210810361207a57634e487b7160e01b600052602260045260246000fd5b50919050565b634e487b7160e01b600052601160045260246000fd5b808202811582820484141761089957610899612080565b6000826120ca57634e487b7160e01b600052601260045260246000fd5b500490565b8181038181111561089957610899612080565b6000602082840312156120f457600080fd5b8151801515811461203f57600080fd5b6020808252600f908201526e151c985b9cd9995c8819985a5b1959608a1b604082015260600190565b634e487b7160e01b600052603260045260246000fd5b60006001820161215557612155612080565b5060010190565b8082018082111561089957610899612080565b601f8211156121b957600081815260208120601f850160051c810160208610156121965750805b601f850160051c820191505b818110156121b5578281556001016121a2565b5050505b505050565b815167ffffffffffffffff8111156121d8576121d8611dd6565b6121ec816121e68454612046565b8461216f565b602080601f83116001811461222157600084156122095750858301515b600019600386901b1c1916600185901b1785556121b5565b600085815260208120601f198616915b8281101561225057888601518255948401946001909101908401612231565b508582101561226e5787850151600019600388901b60f8161c191681555b5050505050600190811b01905550565b6040815260006122916040830185611bdd565b9050826020830152939250505056fea2646970667358221220f710e2fdfbc98a40a8869415ea61a77ee30c7e227d25029f6c2c4d4759f7c05564736f6c63430008140033",
  "devdoc": {
    "details": "Manages individual agricultural investment projects in Kyrgyzstan",
    "kind": "dev",
    "methods": {
      "cancelProject(uint256)": {
        "details": "Cancel project and refund investors (if funding goal not reached)"
      },
      "createProject(string,string,string,uint256,uint256,uint256,uint256,uint256)": {
        "details": "Create a new agricultural project"
      },
      "distributeReturns(uint256,uint256)": {
        "details": "Distribute returns to investors"
      },
      "getInvestorAmount(uint256,address)": {
        "details": "Get investor's investment amount in a project"
      },
      "getProject(uint256)": {
        "details": "Get project details"
      },
      "getProjectInvestments(uint256)": {
        "details": "Get all investments for a project"
      },
      "invest(uint256,uint256)": {
        "details": "Invest in a project"
      },
      "owner()": {
        "details": "Returns the address of the current owner."
      },
      "renounceOwnership()": {
        "details": "Leaves the contract without owner. It will not be possible to call `onlyOwner` functions. Can only be called by the current owner. NOTE: Renouncing ownership will leave the contract without an owner, thereby disabling any functionality that is only available to the owner."
      },
      "transferOwnership(address)": {
        "details": "Transfers ownership of the contract to a new account (`newOwner`). Can only be called by the current owner."
      },
      "updatePlatformFee(uint256)": {
        "details": "Update platform fee (only owner)"
      },
      "withdrawFunds(uint256)": {
        "details": "Project owner withdraws funds after successful funding"
      }
    },
    "title": "AgriProject",
    "version": 1
  },
  "userdoc": {
    "kind": "user",
    "methods": {},
    "version": 1
  },
  "storageLayout": {
    "storage": [
      {
        "astId": 7,
        "contract": "contracts/AgriProject.sol:AgriProject",
        "label": "_owner",
        "offset": 0,
        "slot": "0",
        "type": "t_address"
      },
      {
        "astId": 123,
        "contract": "contracts/AgriProject.sol:AgriProject",
        "label": "_status",
        "offset": 0,
        "slot": "1",
        "type": "t_uint256"
      },
      {
        "astId": 951,
        "contract": "contracts/AgriProject.sol:AgriProject",
        "label": "projectCounter",
        "offset": 0,
        "slot": "2",
        "type": "t_uint256"
      },
      {
        "astId": 956,
        "contract": "contracts/AgriProject.sol:AgriProject",
        "label": "projects",
        "offset": 0,
        "slot": "3",
        "type": "t_mapping(t_uint256,t_struct(Project)940_storage)"
      },
      {
        "astId": 962,
        "contract": "contracts/AgriProject.sol:AgriProject",
        "label": "projectInvestments",
        "offset": 0,
        "slot": "4",
        "type": "t_mapping(t_uint256,t_array(t_struct(Investment)949_storage)dyn_storage)"
      },
      {
        "astId": 968,
        "contract": "contracts/AgriProject.sol:AgriProject",
        "label": "investorAmounts",
        "offset": 0,
        "slot": "5",
        "type": "t_mapping(t_uint256,t_mapping(t_address,t_uint256))"
      },
      {
        "astId": 971,
        "contract": "contracts/AgriProject.sol:AgriProject",
        "label": "stableCoin",
        "offset": 0,
        "slot": "6",
        "type": "t_contract(IERC20)842"
      },
      {
        "astId": 973,
        "contract": "contracts/AgriProject.sol:AgriProject",
        "label": "platformFee",
        "offset": 0,
        "slot": "7",
        "type": "t_uint256"
      }
    ],
    "types": {
      "t_address": {
        "encoding": "inplace",
        "label": "address",
        "numberOfBytes": "20"
      },
      "t_array(t_struct(Investment)949_storage)dyn_storage": {
        "base": "t_struct(Investment)949_storage",
        "encoding": "dynamic_array",
        "label": "struct AgriProject.Investment[]",
        "numberOfBytes": "32"
      },
      "t_bool": {
        "encoding": "inplace",
        "label": "bool",
        "numberOfBytes": "1"
      },
      "t_contract(IERC20)842": {
        "encoding": "inplace",
        "label": "contract IERC20",
        "numberOfBytes": "20"
      },
      "t_enum(ProjectStatus)912": {
        "encoding": "inplace",
        "label": "enum AgriProject.ProjectStatus",
        "numberOfBytes": "1"
      },
      "t_mapping(t_address,t_uint256)": {
        "encoding": "mapping",
        "key": "t_address",
        "label": "mapping(address => uint256)",
        "numberOfBytes": "32",
        "value": "t_uint256"
      },
      "t_mapping(t_uint256,t_array(t_struct(Investment)949_storage)dyn_storage)": {
        "encoding": "mapping",
        "key": "t_uint256",
        "label": "mapping(uint256 => struct AgriProject.Investment[])",
        "numberOfBytes": "32",
        "value": "t_array(t_struct(Investment)949_storage)dyn_storage"
      },
      "t_mapping(t_uint256,t_mapping(t_address,t_uint256))": {
        "encoding": "mapping",
        "key": "t_uint256",
        "label": "mapping(uint256 => mapping(address => uint256))",
        "numberOfBytes": "32",
        "value": "t_mapping(t_address,t_uint256)"
      },
      "t_mapping(t_uint256,t_struct(Project)940_storage)": {
        "encoding": "mapping",
        "key": "t_uint256",
        "label": "mapping(uint256 => struct AgriProject.Project)",
        "numberOfBytes": "32",
        "value": "t_struct(Project)940_storage"
      },
      "t_string_storage": {
        "encoding": "bytes",
        "label": "string",
        "numberOfBytes": "32"
      },
      "t_struct(Investment)949_storage": {
        "encoding": "inplace",
        "label": "struct AgriProject.Investment",
        "members": [
          {
            "astId": 942,
            "contract": "contracts/AgriProject.sol:AgriProject",
            "label": "investor",
            "offset": 0,
            "slot": "0",
            "type": "t_address"
          },
          {
            "astId": 944,
            "contract": "contracts/AgriProject.sol:AgriProject",
            "label": "amount",
            "offset": 0,
            "slot": "1",
            "type": "t_uint256"
          },
          {
            "astId": 946,
            "contract": "contracts/AgriProject.sol:AgriProject",
            "label": "timestamp",
            "offset": 0,
            "slot": "2",
            "type": "t_uint256"
          },
          {
            "astId": 948,
            "contract": "contracts/AgriProject.sol:AgriProject",
            "label": "withdrawn",
            "offset": 0,
            "slot": "3",
            "type": "t_bool"
          }
        ],
        "numberOfBytes": "128"
      },
      "t_struct(Project)940_storage": {
        "encoding": "inplace",
        "label": "struct AgriProject.Project",
        "members": [
          {
            "astId": 914,
            "contract": "contracts/AgriProject.sol:AgriProject",
            "label": "id",
            "offset": 0,
            "slot": "0",
            "type": "t_uint256"
          },
          {
            "astId": 916,
            "contract": "contracts/AgriProject.sol:AgriProject",
            "label": "name",
            "offset": 0,
            "slot": "1",
            "type": "t_string_storage"
          },
          {
            "astId": 918,
            "contract": "contracts/AgriProject.sol:AgriProject",
            "label": "description",
            "offset": 0,
            "slot": "2",
            "type": "t_string_storage"
          },
          {
            "astId": 920,
            "contract": "contracts/AgriProject.sol:AgriProject",
            "label": "location",
            "offset": 0,
            "slot": "3",
            "type": "t_string_storage"
          },
          {
            "astId": 922,
            "contract": "contracts/AgriProject.sol:AgriProject",
            "label": "projectOwner",
            "offset": 0,
            "slot": "4",
            "type": "t_address"
          },
          {
            "astId": 924,
            "contract": "contracts/AgriProject.sol:AgriProject",
            "label": "fundingGoal",
            "offset": 0,
            "slot": "5",
            "type": "t_uint256"
          },
          {
            "astId": 926,
            "contract": "contracts/AgriProject.sol:AgriProject",
            "label": "totalFunded",
            "offset": 0,
            "slot": "6",
            "type": "t_uint256"
          },
          {
            "astId": 928,
            "contract": "contracts/AgriProject.sol:AgriProject",
            "label": "minInvestment",
            "offset": 0,
            "slot": "7",
            "type": "t_uint256"
          },
          {
            "astId": 930,
            "contract": "contracts/AgriProject.sol:AgriProject",
            "label": "expectedReturn",
            "offset": 0,
            "slot": "8",
            "type": "t_uint256"
          },
          {
            "astId": 932,
            "contract": "contracts/AgriProject.sol:AgriProject",
            "label": "deadline",
            "offset": 0,
            "slot": "9",
            "type": "t_uint256"
          },
          {
            "astId": 934,
            "contract": "contracts/AgriProject.sol:AgriProject",
            "label": "duration",
            "offset": 0,
            "slot": "10",
            "type": "t_uint256"
          },
          {
            "astId": 937,
            "contract": "contracts/AgriProject.sol:AgriProject",
            "label": "status",
            "offset": 0,
            "slot": "11",
            "type": "t_enum(ProjectStatus)912"
          },
          {
            "astId": 939,
            "contract": "contracts/AgriProject.sol:AgriProject",
            "label": "fundsWithdrawn",
            "offset": 1,
            "slot": "11",
            "type": "t_bool"
          }
        ],
        "numberOfBytes": "384"
      },
      "t_uint256": {
        "encoding": "inplace",
        "label": "uint256",
        "numberOfBytes": "32"
      }
    }
  }
}